{
  "contractName": "DStock",
  "abi": [
    {
      "inputs": [
        {
          "internalType": "contract DStockToken",
          "name": "_tokenContract",
          "type": "address"
        },
        {
          "internalType": "uint256",
          "name": "_tokenPrice",
          "type": "uint256"
        }
      ],
      "payable": false,
      "stateMutability": "nonpayable",
      "type": "constructor"
    },
    {
      "anonymous": false,
      "inputs": [
        {
          "indexed": false,
          "internalType": "address",
          "name": "_buyer",
          "type": "address"
        },
        {
          "indexed": false,
          "internalType": "uint256",
          "name": "_amount",
          "type": "uint256"
        }
      ],
      "name": "TokenBought",
      "type": "event"
    },
    {
      "anonymous": false,
      "inputs": [
        {
          "indexed": false,
          "internalType": "address",
          "name": "_buyer",
          "type": "address"
        },
        {
          "indexed": false,
          "internalType": "uint256",
          "name": "_amount",
          "type": "uint256"
        }
      ],
      "name": "TokenRedeemed",
      "type": "event"
    },
    {
      "anonymous": false,
      "inputs": [
        {
          "indexed": false,
          "internalType": "string",
          "name": "hash",
          "type": "string"
        },
        {
          "indexed": false,
          "internalType": "uint256",
          "name": "cost",
          "type": "uint256"
        }
      ],
      "name": "itemPurchased",
      "type": "event"
    },
    {
      "anonymous": false,
      "inputs": [
        {
          "indexed": false,
          "internalType": "address",
          "name": "creator",
          "type": "address"
        },
        {
          "indexed": false,
          "internalType": "string",
          "name": "hash",
          "type": "string"
        }
      ],
      "name": "itemUploaded",
      "type": "event"
    },
    {
      "constant": true,
      "inputs": [],
      "name": "assetCount",
      "outputs": [
        {
          "internalType": "uint256",
          "name": "",
          "type": "uint256"
        }
      ],
      "payable": false,
      "stateMutability": "view",
      "type": "function"
    },
    {
      "constant": true,
      "inputs": [
        {
          "internalType": "uint256",
          "name": "",
          "type": "uint256"
        }
      ],
      "name": "assets",
      "outputs": [
        {
          "internalType": "uint256",
          "name": "assetId",
          "type": "uint256"
        },
        {
          "internalType": "string",
          "name": "hash",
          "type": "string"
        },
        {
          "internalType": "address",
          "name": "creatorAddress",
          "type": "address"
        },
        {
          "internalType": "uint256",
          "name": "cost",
          "type": "uint256"
        },
        {
          "internalType": "uint256",
          "name": "soldCount",
          "type": "uint256"
        }
      ],
      "payable": false,
      "stateMutability": "view",
      "type": "function"
    },
    {
      "constant": true,
      "inputs": [
        {
          "internalType": "address",
          "name": "",
          "type": "address"
        }
      ],
      "name": "getMyId",
      "outputs": [
        {
          "internalType": "uint8",
          "name": "",
          "type": "uint8"
        }
      ],
      "payable": false,
      "stateMutability": "view",
      "type": "function"
    },
    {
      "constant": true,
      "inputs": [],
      "name": "personCount",
      "outputs": [
        {
          "internalType": "uint8",
          "name": "",
          "type": "uint8"
        }
      ],
      "payable": false,
      "stateMutability": "view",
      "type": "function"
    },
    {
      "constant": true,
      "inputs": [
        {
          "internalType": "uint256",
          "name": "",
          "type": "uint256"
        }
      ],
      "name": "persons",
      "outputs": [
        {
          "internalType": "uint256",
          "name": "personId",
          "type": "uint256"
        },
        {
          "internalType": "address",
          "name": "personAddress",
          "type": "address"
        },
        {
          "internalType": "uint256",
          "name": "earning",
          "type": "uint256"
        },
        {
          "internalType": "uint256",
          "name": "tokenCount",
          "type": "uint256"
        },
        {
          "internalType": "bool",
          "name": "initialized",
          "type": "bool"
        }
      ],
      "payable": false,
      "stateMutability": "view",
      "type": "function"
    },
    {
      "constant": true,
      "inputs": [],
      "name": "tokenContract",
      "outputs": [
        {
          "internalType": "contract DStockToken",
          "name": "",
          "type": "address"
        }
      ],
      "payable": false,
      "stateMutability": "view",
      "type": "function"
    },
    {
      "constant": true,
      "inputs": [],
      "name": "tokenPrice",
      "outputs": [
        {
          "internalType": "uint256",
          "name": "",
          "type": "uint256"
        }
      ],
      "payable": false,
      "stateMutability": "view",
      "type": "function"
    },
    {
      "constant": true,
      "inputs": [],
      "name": "tokensSold",
      "outputs": [
        {
          "internalType": "uint256",
          "name": "",
          "type": "uint256"
        }
      ],
      "payable": false,
      "stateMutability": "view",
      "type": "function"
    },
    {
      "constant": false,
      "inputs": [
        {
          "internalType": "uint256",
          "name": "_numberOfTokens",
          "type": "uint256"
        }
      ],
      "name": "buyTokens",
      "outputs": [],
      "payable": true,
      "stateMutability": "payable",
      "type": "function"
    },
    {
      "constant": false,
      "inputs": [
        {
          "internalType": "address payable",
          "name": "_to",
          "type": "address"
        },
        {
          "internalType": "uint256",
          "name": "_numberOfTokens",
          "type": "uint256"
        }
      ],
      "name": "redeemTokens",
      "outputs": [],
      "payable": false,
      "stateMutability": "nonpayable",
      "type": "function"
    },
    {
      "constant": false,
      "inputs": [
        {
          "internalType": "string",
          "name": "_hash",
          "type": "string"
        },
        {
          "internalType": "uint256",
          "name": "_cost",
          "type": "uint256"
        }
      ],
      "name": "uploadAsset",
      "outputs": [],
      "payable": false,
      "stateMutability": "nonpayable",
      "type": "function"
    },
    {
      "constant": false,
      "inputs": [
        {
          "internalType": "uint256",
          "name": "_assetId",
          "type": "uint256"
        }
      ],
      "name": "buyAsset",
      "outputs": [],
      "payable": false,
      "stateMutability": "nonpayable",
      "type": "function"
    },
    {
      "constant": true,
      "inputs": [],
      "name": "showAssets",
      "outputs": [
        {
          "internalType": "uint256[]",
          "name": "",
          "type": "uint256[]"
        }
      ],
      "payable": false,
      "stateMutability": "view",
      "type": "function"
    },
    {
      "constant": true,
      "inputs": [],
      "name": "showUploads",
      "outputs": [
        {
          "internalType": "uint256[]",
          "name": "",
          "type": "uint256[]"
        }
      ],
      "payable": false,
      "stateMutability": "view",
      "type": "function"
    },
    {
      "constant": true,
      "inputs": [],
      "name": "getId",
      "outputs": [
        {
          "internalType": "uint8",
          "name": "",
          "type": "uint8"
        }
      ],
      "payable": false,
      "stateMutability": "view",
      "type": "function"
    },
    {
      "constant": true,
      "inputs": [],
      "name": "getPerson",
      "outputs": [
        {
          "internalType": "address",
          "name": "",
          "type": "address"
        },
        {
          "internalType": "uint256",
          "name": "",
          "type": "uint256"
        },
        {
          "internalType": "uint256",
          "name": "",
          "type": "uint256"
        }
      ],
      "payable": false,
      "stateMutability": "view",
      "type": "function"
    }
  ],
  "bytecode": "0x608060405234801561001057600080fd5b50604051611e48380380611e488339818101604052604081101561003357600080fd5b810190808051906020019092919080519060200190929190505050336000806101000a81548173ffffffffffffffffffffffffffffffffffffffff021916908373ffffffffffffffffffffffffffffffffffffffff16021790555081600160006101000a81548173ffffffffffffffffffffffffffffffffffffffff021916908373ffffffffffffffffffffffffffffffffffffffff160217905550806002819055505050611d61806100e76000396000f3fe6080604052600436106100f25760003560e01c806378495bf81161008a578063cf35bdd011610059578063cf35bdd014610518578063dad7f11014610614578063df2e2d221461066f578063eafe7a74146106db576100f2565b806378495bf8146103bc5780637ff9b596146103ed5780638ec4dc9514610418578063a2f9eac61461047d576100f2565b80633610724e116100c65780633610724e146102db578063518ab2a81461030957806355a373d6146103345780635d1ca6311461038b576100f2565b806288759a146100f7578063110d35b81461016357806328ed84001461019e578063294386b414610209575b600080fd5b34801561010357600080fd5b5061010c610706565b6040518080602001828103825283818151815260200191508051906020019060200280838360005b8381101561014f578082015181840152602081019050610134565b505050509050019250505060405180910390f35b34801561016f57600080fd5b5061019c6004803603602081101561018657600080fd5b81019080803590602001909291905050506107c1565b005b3480156101aa57600080fd5b506101ed600480360360208110156101c157600080fd5b81019080803573ffffffffffffffffffffffffffffffffffffffff169060200190929190505050610b5f565b604051808260ff1660ff16815260200191505060405180910390f35b34801561021557600080fd5b506102d96004803603604081101561022c57600080fd5b810190808035906020019064010000000081111561024957600080fd5b82018360208201111561025b57600080fd5b8035906020019184600183028401116401000000008311171561027d57600080fd5b91908080601f016020809104026020016040519081016040528093929190818152602001838380828437600081840152601f19601f82011690508083019250505050505050919291929080359060200190929190505050610b7f565b005b610307600480360360208110156102f157600080fd5b8101908080359060200190929190505050610ec7565b005b34801561031557600080fd5b5061031e6111a5565b6040518082815260200191505060405180910390f35b34801561034057600080fd5b506103496111ab565b604051808273ffffffffffffffffffffffffffffffffffffffff1673ffffffffffffffffffffffffffffffffffffffff16815260200191505060405180910390f35b34801561039757600080fd5b506103a06111d1565b604051808260ff1660ff16815260200191505060405180910390f35b3480156103c857600080fd5b506103d1611225565b604051808260ff1660ff16815260200191505060405180910390f35b3480156103f957600080fd5b50610402611238565b6040518082815260200191505060405180910390f35b34801561042457600080fd5b5061042d61123e565b604051808473ffffffffffffffffffffffffffffffffffffffff1673ffffffffffffffffffffffffffffffffffffffff168152602001838152602001828152602001935050505060405180910390f35b34801561048957600080fd5b506104b6600480360360208110156104a057600080fd5b81019080803590602001909291905050506113a0565b604051808681526020018573ffffffffffffffffffffffffffffffffffffffff1673ffffffffffffffffffffffffffffffffffffffff168152602001848152602001838152602001821515151581526020019550505050505060405180910390f35b34801561052457600080fd5b506105516004803603602081101561053b57600080fd5b8101908080359060200190929190505050611403565b60405180868152602001806020018573ffffffffffffffffffffffffffffffffffffffff1673ffffffffffffffffffffffffffffffffffffffff168152602001848152602001838152602001828103825286818151815260200191508051906020019080838360005b838110156105d55780820151818401526020810190506105ba565b50505050905090810190601f1680156106025780820380516001836020036101000a031916815260200191505b50965050505050505060405180910390f35b34801561062057600080fd5b5061066d6004803603604081101561063757600080fd5b81019080803573ffffffffffffffffffffffffffffffffffffffff169060200190929190803590602001909291905050506114f1565b005b34801561067b57600080fd5b506106846117ea565b6040518080602001828103825283818151815260200191508051906020019060200280838360005b838110156106c75780820151818401526020810190506106ac565b505050509050019250505060405180910390f35b3480156106e757600080fd5b506106f06118a5565b6040518082815260200191505060405180910390f35b606060076000600860003373ffffffffffffffffffffffffffffffffffffffff1673ffffffffffffffffffffffffffffffffffffffff16815260200190815260200160002060009054906101000a900460ff1660ff1681526020019081526020016000206004018054806020026020016040519081016040528092919081815260200182805480156107b757602002820191906000526020600020905b8154815260200190600101908083116107a3575b5050505050905090565b600081101580156107d3575060045481105b610845576040517f08c379a00000000000000000000000000000000000000000000000000000000081526004018080602001828103825260138152602001807f417373657420636f756e7420696e76616c69640000000000000000000000000081525060200191505060405180910390fd5b61084e336118ab565b600160009054906101000a900473ffffffffffffffffffffffffffffffffffffffff1673ffffffffffffffffffffffffffffffffffffffff166323b872dd336006600085815260200190815260200160002060020160009054906101000a900473ffffffffffffffffffffffffffffffffffffffff1660066000868152602001908152602001600020600301546040518463ffffffff1660e01b8152600401808473ffffffffffffffffffffffffffffffffffffffff1673ffffffffffffffffffffffffffffffffffffffff1681526020018373ffffffffffffffffffffffffffffffffffffffff1673ffffffffffffffffffffffffffffffffffffffff1681526020018281526020019350505050602060405180830381600087803b15801561097757600080fd5b505af115801561098b573d6000803e3d6000fd5b505050506040513d60208110156109a157600080fd5b81019080805190602001909291905050506109bb57600080fd5b600660008281526020019081526020016000206004016000815480929190600101919050555060076000600860003373ffffffffffffffffffffffffffffffffffffffff1673ffffffffffffffffffffffffffffffffffffffff16815260200190815260200160002060009054906101000a900460ff1660ff1681526020019081526020016000206005018190806001815401808255809150509060018203906000526020600020016000909192909190915055507ffcf77f9d519ad3c98bd0d8b082918c0a1a52295d6b8bf6376dd5beace508dfde6006600083815260200190815260200160002060010160066000848152602001908152602001600020600301546040518080602001838152602001828103825284818154600181600116156101000203166002900481526020019150805460018160011615610100020316600290048015610b4d5780601f10610b2257610100808354040283529160200191610b4d565b820191906000526020600020905b815481529060010190602001808311610b3057829003601f168201915b5050935050505060405180910390a150565b60086020528060005260406000206000915054906101000a900460ff1681565b6000825111610bf6576040517f08c379a00000000000000000000000000000000000000000000000000000000081526004018080602001828103825260148152602001807f486173682063616e6e6f7420626520656d70747900000000000000000000000081525060200191505060405180910390fd5b6000811415610c6d576040517f08c379a00000000000000000000000000000000000000000000000000000000081526004018080602001828103825260108152602001807f436f73742063616e6e6f7420626520300000000000000000000000000000000081525060200191505060405180910390fd5b610c76336118ab565b6040518060a0016040528060045481526020018381526020013373ffffffffffffffffffffffffffffffffffffffff1681526020018281526020016000815250600660006004548152602001908152602001600020600082015181600001556020820151816001019080519060200190610cf1929190611c15565b5060408201518160020160006101000a81548173ffffffffffffffffffffffffffffffffffffffff021916908373ffffffffffffffffffffffffffffffffffffffff160217905550606082015181600301556080820151816004015590505060076000600860003373ffffffffffffffffffffffffffffffffffffffff1673ffffffffffffffffffffffffffffffffffffffff16815260200190815260200160002060009054906101000a900460ff1660ff16815260200190815260200160002060040160045490806001815401808255809150509060018203906000526020600020016000909192909190915055506004600081548092919060010191905055507f9c5e23d3ed1c67580eb3ff1cd6db082eb04518f766348e760b0cfde64eea04bb3383604051808373ffffffffffffffffffffffffffffffffffffffff1673ffffffffffffffffffffffffffffffffffffffff16815260200180602001828103825283818151815260200191508051906020019080838360005b83811015610e88578082015181840152602081019050610e6d565b50505050905090810190601f168015610eb55780820380516001836020036101000a031916815260200191505b50935050505060405180910390a15050565b610ed381600254611be9565b3414610ede57600080fd5b80600160009054906101000a900473ffffffffffffffffffffffffffffffffffffffff1673ffffffffffffffffffffffffffffffffffffffff166370a082316000809054906101000a900473ffffffffffffffffffffffffffffffffffffffff166040518263ffffffff1660e01b8152600401808273ffffffffffffffffffffffffffffffffffffffff1673ffffffffffffffffffffffffffffffffffffffff16815260200191505060206040518083038186803b158015610f9f57600080fd5b505afa158015610fb3573d6000803e3d6000fd5b505050506040513d6020811015610fc957600080fd5b81019080805190602001909291905050501015610fe557600080fd5b600160009054906101000a900473ffffffffffffffffffffffffffffffffffffffff1673ffffffffffffffffffffffffffffffffffffffff1663a9059cbb33836040518363ffffffff1660e01b8152600401808373ffffffffffffffffffffffffffffffffffffffff1673ffffffffffffffffffffffffffffffffffffffff16815260200182815260200192505050602060405180830381600087803b15801561108e57600080fd5b505af11580156110a2573d6000803e3d6000fd5b505050506040513d60208110156110b857600080fd5b810190808051906020019092919050505061111e576040517f08c379a0000000000000000000000000000000000000000000000000000000008152600401808060200182810382526025815260200180611d086025913960400191505060405180910390fd5b611127336118ab565b806003600082825401925050819055507fa3a187cfc249a33f6c4046e8d418886eea8564f9dd214a32aa5ba08d9602b5433382604051808373ffffffffffffffffffffffffffffffffffffffff1673ffffffffffffffffffffffffffffffffffffffff1681526020018281526020019250505060405180910390a150565b60035481565b600160009054906101000a900473ffffffffffffffffffffffffffffffffffffffff1681565b6000600860003373ffffffffffffffffffffffffffffffffffffffff1673ffffffffffffffffffffffffffffffffffffffff16815260200190815260200160002060009054906101000a900460ff16905090565b600560009054906101000a900460ff1681565b60025481565b600080600060076000600860003373ffffffffffffffffffffffffffffffffffffffff1673ffffffffffffffffffffffffffffffffffffffff16815260200190815260200160002060009054906101000a900460ff1660ff16815260200190815260200160002060010160009054906101000a900473ffffffffffffffffffffffffffffffffffffffff1660076000600860003373ffffffffffffffffffffffffffffffffffffffff1673ffffffffffffffffffffffffffffffffffffffff16815260200190815260200160002060009054906101000a900460ff1660ff1681526020019081526020016000206002015460076000600860003373ffffffffffffffffffffffffffffffffffffffff1673ffffffffffffffffffffffffffffffffffffffff16815260200190815260200160002060009054906101000a900460ff1660ff16815260200190815260200160002060030154925092509250909192565b60076020528060005260406000206000915090508060000154908060010160009054906101000a900473ffffffffffffffffffffffffffffffffffffffff16908060020154908060030154908060060160009054906101000a900460ff16905085565b6006602052806000526040600020600091509050806000015490806001018054600181600116156101000203166002900480601f0160208091040260200160405190810160405280929190818152602001828054600181600116156101000203166002900480156114b55780601f1061148a576101008083540402835291602001916114b5565b820191906000526020600020905b81548152906001019060200180831161149857829003601f168201915b5050505050908060020160009054906101000a900473ffffffffffffffffffffffffffffffffffffffff16908060030154908060040154905085565b80600160009054906101000a900473ffffffffffffffffffffffffffffffffffffffff1673ffffffffffffffffffffffffffffffffffffffff166370a08231336040518263ffffffff1660e01b8152600401808273ffffffffffffffffffffffffffffffffffffffff1673ffffffffffffffffffffffffffffffffffffffff16815260200191505060206040518083038186803b15801561159157600080fd5b505afa1580156115a5573d6000803e3d6000fd5b505050506040513d60208110156115bb57600080fd5b810190808051906020019092919050505010156115d757600080fd5b600160009054906101000a900473ffffffffffffffffffffffffffffffffffffffff1673ffffffffffffffffffffffffffffffffffffffff166323b872dd336000809054906101000a900473ffffffffffffffffffffffffffffffffffffffff16846040518463ffffffff1660e01b8152600401808473ffffffffffffffffffffffffffffffffffffffff1673ffffffffffffffffffffffffffffffffffffffff1681526020018373ffffffffffffffffffffffffffffffffffffffff1673ffffffffffffffffffffffffffffffffffffffff1681526020018281526020019350505050602060405180830381600087803b1580156116d557600080fd5b505af11580156116e9573d6000803e3d6000fd5b505050506040513d60208110156116ff57600080fd5b810190808051906020019092919050505061171957600080fd5b8173ffffffffffffffffffffffffffffffffffffffff166108fc61173f83600254611be9565b9081150290604051600060405180830381858888f1935050505015801561176a573d6000803e3d6000fd5b50806003600082825403925050819055507fce4385affa8ad2cbec45b1660c6f6afcb691bf0a7a73ebda096ee1dfb670fe6f3382604051808373ffffffffffffffffffffffffffffffffffffffff1673ffffffffffffffffffffffffffffffffffffffff1681526020018281526020019250505060405180910390a15050565b606060076000600860003373ffffffffffffffffffffffffffffffffffffffff1673ffffffffffffffffffffffffffffffffffffffff16815260200190815260200160002060009054906101000a900460ff1660ff16815260200190815260200160002060050180548060200260200160405190810160405280929190818152602001828054801561189b57602002820191906000526020600020905b815481526020019060010190808311611887575b5050505050905090565b60045481565b6001151560076000600860008573ffffffffffffffffffffffffffffffffffffffff1673ffffffffffffffffffffffffffffffffffffffff16815260200190815260200160002060009054906101000a900460ff1660ff16815260200190815260200160002060060160009054906101000a900460ff161515141561192f57611be6565b6005600081819054906101000a900460ff168092919060010191906101000a81548160ff021916908360ff16021790555050600560009054906101000a900460ff16600860008373ffffffffffffffffffffffffffffffffffffffff1673ffffffffffffffffffffffffffffffffffffffff16815260200190815260200160002060006101000a81548160ff021916908360ff160217905550600560009054906101000a900460ff1660ff1660076000600560009054906101000a900460ff1660ff168152602001908152602001600020600001819055508060076000600560009054906101000a900460ff1660ff16815260200190815260200160002060010160006101000a81548173ffffffffffffffffffffffffffffffffffffffff021916908373ffffffffffffffffffffffffffffffffffffffff160217905550600060076000600560009054906101000a900460ff1660ff16815260200190815260200160002060020181905550600060076000600560009054906101000a900460ff1660ff16815260200190815260200160002060030181905550600160076000600560009054906101000a900460ff1660ff16815260200190815260200160002060060160006101000a81548160ff0219169083151502179055506000604051908082528060200260200182016040528015611b3b5781602001602082028038833980820191505090505b5060076000600560009054906101000a900460ff1660ff1681526020019081526020016000206004019080519060200190611b77929190611c95565b506000604051908082528060200260200182016040528015611ba85781602001602082028038833980820191505090505b5060076000600560009054906101000a900460ff1660ff1681526020019081526020016000206005019080519060200190611be4929190611c95565b505b50565b600080821480611c065750828283850292508281611c0357fe5b04145b611c0f57600080fd5b92915050565b828054600181600116156101000203166002900490600052602060002090601f016020900481019282601f10611c5657805160ff1916838001178555611c84565b82800160010185558215611c84579182015b82811115611c83578251825591602001919060010190611c68565b5b509050611c919190611ce2565b5090565b828054828255906000526020600020908101928215611cd1579160200282015b82811115611cd0578251825591602001919060010190611cb5565b5b509050611cde9190611ce2565b5090565b611d0491905b80821115611d00576000816000905550600101611ce8565b5090565b9056fe546f6b656e2073686f756c64206265207472616e7366657220746f20746865206275796572a265627a7a72315820b5e46acd8da35a0736117098407c6cea66ea2e9eb9a4999f5dd98142f4ac640364736f6c63430005100032",
  "source": "pragma solidity ^0.5.16;\r\n\r\nimport \"./DStockToken.sol\";\r\n\r\ncontract DStock{\r\n    \r\n    address admin;\r\n    DStockToken public tokenContract;\r\n    uint256 public tokenPrice;\r\n    uint256 public tokensSold;\r\n\r\n    event TokenBought(address _buyer, uint256 _amount);\r\n    event TokenRedeemed(address _buyer, uint256 _amount);\r\n    // event temporary(uint add, uint token);\r\n\r\n    uint256 public assetCount;\r\n    uint8 public personCount;\r\n    \r\n    struct asset{\r\n        uint256 assetId;\r\n        string hash;\r\n        address creatorAddress;\r\n        uint256 cost;\r\n        uint256 soldCount;\r\n    }\r\n    \r\n    struct person{\r\n        uint256 personId;\r\n        address personAddress;\r\n        uint256 earning;\r\n        uint256 tokenCount;\r\n        uint256[] assetsUploaded;\r\n        uint256[] assetsBought;\r\n        bool initialized;\r\n    }\r\n    \r\n    mapping (uint256=> asset) public assets;\r\n    mapping (uint256=> person) public persons;\r\n    mapping (address=> uint8) public getMyId;\r\n    \r\n    event itemUploaded(address creator, string hash);\r\n    event itemPurchased(string hash, uint256 cost);\r\n    \r\n    constructor(DStockToken _tokenContract, uint256 _tokenPrice) public {\r\n        admin = msg.sender;\r\n        tokenContract = _tokenContract;\r\n        tokenPrice = _tokenPrice;\r\n    }\r\n\r\n    function initializePerson(address _sender) private {\r\n        if(persons[getMyId[_sender]].initialized == true) { return; }\r\n        personCount++;\r\n        getMyId[_sender] = personCount;\r\n        persons[personCount].personId = personCount;\r\n        persons[personCount].personAddress = _sender;\r\n        persons[personCount].earning= 0;\r\n        persons[personCount].tokenCount = 0 ;\r\n        persons[personCount].initialized = true;\r\n        persons[personCount].assetsUploaded = new uint256[](0);\r\n        persons[personCount].assetsBought = new uint256[](0);\r\n    }\r\n    \r\n\r\n    function multiply(uint256 x, uint256 y) internal pure returns (uint256 z) {\r\n        require(y == 0 || (z = x * y) / y == x);\r\n    }\r\n\r\n    function buyTokens(uint256 _numberOfTokens) public payable {\r\n        require(msg.value == multiply(_numberOfTokens, tokenPrice));//should be equal ideally\r\n        require(tokenContract.balanceOf(admin) >= _numberOfTokens);\r\n        require(tokenContract.transfer(msg.sender, _numberOfTokens),\"Token should be transfer to the buyer\");\r\n        initializePerson(msg.sender);\r\n\r\n        tokensSold += _numberOfTokens;\r\n        // emit temporary(tokenContract.balanceOf(admin),_numberOfTokens); //is address par tokens nhi hai\r\n        emit TokenBought(msg.sender, _numberOfTokens);\r\n    }\r\n    \r\n    function redeemTokens(address payable _to, uint256 _numberOfTokens ) public{ //payable not used\r\n        require(tokenContract.balanceOf(msg.sender) >= _numberOfTokens);\r\n        require(tokenContract.transferFrom(msg.sender, admin, _numberOfTokens)); \r\n        _to.transfer(multiply(_numberOfTokens, tokenPrice));\r\n        \r\n        tokensSold -= _numberOfTokens;\r\n        emit TokenRedeemed(msg.sender, _numberOfTokens);\r\n    }\r\n    \r\n    \r\n    function uploadAsset(string memory _hash, uint256 _cost) public {\r\n        require(bytes(_hash).length > 0,\"Hash cannot be empty\");\r\n        require(_cost != 0, \"Cost cannot be 0\");\r\n        initializePerson(msg.sender);\r\n        assets[assetCount] = asset(assetCount,_hash,msg.sender,_cost,0);\r\n        persons[getMyId[msg.sender]].assetsUploaded.push(assetCount);\r\n        assetCount++;\r\n        emit itemUploaded(msg.sender,_hash);\r\n    }\r\n    \r\n    function buyAsset(uint256 _assetId) public {\r\n        require( _assetId>= 0 && _assetId < assetCount,\"Asset count invalid\");\r\n        initializePerson(msg.sender);\r\n        require(tokenContract.transferFrom(msg.sender, assets[_assetId].creatorAddress, assets[_assetId].cost));\r\n        assets[_assetId].soldCount++;\r\n        persons[getMyId[msg.sender]].assetsBought.push(_assetId);\r\n        emit itemPurchased(assets[_assetId].hash , assets[_assetId].cost);\r\n    }\r\n\r\n    function showAssets() public view returns (uint256[] memory){\r\n     return persons[getMyId[msg.sender]].assetsBought;   \r\n    }\r\n    \r\n    function showUploads() public view returns (uint256[] memory){\r\n     return persons[getMyId[msg.sender]].assetsUploaded;   \r\n    }    \r\n    \r\n    function getId() public view returns (uint8){\r\n     return getMyId[msg.sender];\r\n    }\r\n\r\n    // function getAsset() public view returns (uint8){\r\n    //  return persons[getId()];\r\n    // }\r\n\r\n    function getPerson() public view returns(address, uint, uint){\r\n     return (persons[getMyId[msg.sender]].personAddress, persons[getMyId[msg.sender]].earning, persons[getMyId[msg.sender]].tokenCount);\r\n    }\r\n}",
  "sourcePath": "C:/Users/SHREY GUPTA/Desktop/web d samples/shuttterstock/contracts/DStock.sol",
  "compiler": {
    "name": "solc",
    "version": "0.5.16+commit.9c3226ce.Emscripten.clang"
  },
  "schemaVersion": "3.2.5",
  "updatedAt": "2021-02-09T11:40:08.010Z",
  "networkType": "ethereum",
  "devdoc": {
    "methods": {}
  },
  "userdoc": {
    "methods": {}
  }
}